:020000000328D3
:100006000630831603139F008601831286010614A9
:100016001530FB004B30FC00BE30FD00FD0B1128F7
:10002600FC0B1128FB0B1128000006100B30FB00FF
:100036002630FC005D30FD00FD0B1F28FC0B1F2841
:10004600FB0B1F280000000086141530FB004B3008
:10005600FC00BE30FD00FD0B2E28FC0B2E28FB0BF2
:100066002E28000086100B30FB002630FC005D3089
:10007600FD00FD0B3C28FC0B3C28FB0B3C2800003C
:0600860000000A284528D5
:02400E004A2F37
:00000001FF
