:020000000328D3
:1000060083120313A201A3018316860183128601BC
:1000160001308316870083128712831688018312A4
:1000260008108810871A18281528A20A22080A3AE2
:10003600031D2428A201A30A23080A3A031D242823
:10004600A301F10132307102031847282208860005
:1000560008143430FC00F130FD00FD0B3028FC0B99
:100066003028000000000810230886008814343069
:10007600FC00F130FD00FD0B3E28FC0B3E28000085
:0C00860000008810F10A252818284828DE
:02400E004A2F37
:00000001FF
