:100000000C942A000C9447000C9447000C94470071
:100010000C9447000C9447000C9447000C94470044
:100020000C9447000C9447000C9447000C94470034
:100030000C9447000C9447000C9447000C94470024
:100040000C9447000C9447000C9447000C94470014
:100050000C94470011241FBECFE5D8E0DEBFCDBF12
:1000600010E0A0E6B0E0E4E6F5E002C005900D92F5
:10007000A036B107D9F710E0A0E6B0E001C01D92AC
:10008000A036B107E1F70E948B020C94B0020C94E9
:100090000000843409F470C0853448F4823491F14E
:1000A000833408F04CC0813409F082C00EC082361F
:1000B00049F1833620F4813609F07AC006C08336D0
:1000C000F1F1843609F074C057C0413069F44AB385
:1000D00021E030E0C901062E02C0880F991F0A9462
:1000E000E2F7842B8ABB10C04AB321E030E0C9019B
:1000F000062E02C0880F991F0A94E2F78095842388
:100100008ABB0FC0413069F447B321E030E0C90138
:10011000062E02C0880F991F0A94E2F7842B87BB32
:1001200010C047B321E030E0C901062E02C0880F9D
:10013000991F0A94E2F78095842387BB0FC0413052
:1001400069F444B321E030E0C901062E02C0880FF3
:10015000991F0A94E2F7842B84BB10C044B321E0BA
:1001600030E0C901062E02C0880F991F0A94E2F7F9
:100170008095842384BB0FC0413069F421B381E0B2
:1001800090E0AC0102C0440F551F6A95E2F7BA0136
:10019000622B61BB089521B381E090E0AC0102C005
:1001A000440F551F6A95E2F7BA016095622361BB5F
:1001B0000895843409F470C0853448F4823491F190
:1001C000833408F04CC0813409F082C00EC08236FE
:1001D00049F1833620F4813609F07AC006C08336AF
:1001E000F1F1843609F074C057C0413069F44BB363
:1001F00021E030E0C901062E02C0880F991F0A9441
:10020000E2F7842B8BBB10C04BB321E030E0C90177
:10021000062E02C0880F991F0A94E2F78095842366
:100220008BBB0FC0413069F448B321E030E0C90115
:10023000062E02C0880F991F0A94E2F7842B88BB10
:1002400010C048B321E030E0C901062E02C0880F7B
:10025000991F0A94E2F78095842388BB0FC0413030
:1002600069F445B321E030E0C901062E02C0880FD1
:10027000991F0A94E2F7842B85BB10C045B321E097
:1002800030E0C901062E02C0880F991F0A94E2F7D8
:100290008095842385BB0FC0413069F422B381E08F
:1002A00090E0AC0102C0440F551F6A95E2F7BA0115
:1002B000622B62BB089522B381E090E0AC0102C0E2
:1002C000440F551F6A95E2F7BA016095622362BB3D
:1002D00008958434C9F1853438F48234E9F08334E4
:1002E00038F58134E9F50CC08236B1F0833618F464
:1002F0008136B1F505C08336D9F0843689F524C03E
:100300004BB321E030E0C901062E02C0880F991FCF
:100310000A94E2F784278BBB48B321E030E0C9019F
:10032000062E02C0880F991F0A94E2F7842788BB23
:1003300045B321E030E0C901062E02C0880F991FA5
:100340000A94E2F7842785BB22B381E090E0AC01F8
:1003500002C0440F551F6A95E2F7BA01622762BBDB
:1003600008958434D9F0853438F4823499F0833494
:1003700098F4813439F50CC0823661F0833618F474
:10038000813601F505C0833639F08436D9F406C0CC
:1003900089B389B386B386B383B383B320B380B301
:1003A00041E050E0FA0102C0EE0FFF1F8A95E2F72C
:1003B000CF0130E08223932302C0959587956A95FB
:1003C000E2F7982F892F0895843451F1853438F459
:1003D0008234C1F08334E8F4813441F50CC08236B4
:1003E00089F0833618F4813609F505C0833689F023
:1003F0008436E1F415C0613019F48FEF8ABB04C074
:100400001ABA05C0613019F48FEF87BB04C017BA60
:1004100005C0613019F48FEF84BB04C014BA05C065
:10042000613019F48FEF81BB089511BA08958434B7
:1004300051F1853438F48234C1F08334E8F48134E6
:1004400041F50CC0823689F0833618F4813609F5FF
:1004500005C0833689F08436E1F415C0613019F4A3
:100460008FEF8BBB04C01BBA04C0613011F418BA03
:1004700005C08FEF88BB05C0613019F48FEF85BBD5
:1004800004C015BA05C0613019F48FEF82BB08951E
:1004900012BA08958434C1F0853438F4823491F06E
:1004A000833488F4813489F40CC0823659F0833661
:1004B00018F4813651F405C0833629F0843629F4C6
:1004C00003C089B386B383B390B3892F089584346E
:1004D000F1F0853438F48234A1F08334A8F4813407
:1004E000C9F40CC0823669F0833618F4813691F471
:1004F00005C0833649F0843669F409C08BB3809512
:100500008BBB88B3809588BB85B3809585BB82B350
:10051000809582BB089581E460E041E00E9449003B
:1005200081E463E041E00E94490081E460E00E94D0
:1005300069018FE39DE0A3E081509040A040E1F786
:1005400000C0000081E463E00E9469018FE39DE048
:10055000A3E081509040A040E1F700C00000E5CF4B
:04056000F894FFCF3D
:00000001FF
