:020000000328D3
:100006008316031308108810081188110130831213
:1000160088000B30FB002630FC005D30FD00FD0B38
:100026001228FC0B1228FB0B1228000000000810F7
:10003600023088000B30FB002630FC005D30FD00EE
:10004600FD0B2328FC0B2328FB0B232800000000B4
:100056008810043088000B30FB002630FC005D3031
:10006600FD00FD0B3428FC0B3428FB0B3428000064
:1000760000000811083088000B30FB002630FC0019
:100086005D30FD00FD0B4528FC0B4528FB0B452884
:0A00960000000000881109284F281F
:02400E004A2F37
:00000001FF
