:020000000328D3
:1000060083120313A201A3018316880183128801B8
:1000160001308316860083128601061C2428A20A54
:100026000319A30A061C1828152800302306031DE9
:100036001E2807302206031D24280130A2000030A6
:10004600A30000302306031D2A2801302206031DC3
:100056002E280430880000302306031D3428023081
:100066002206031D38281830880000302306031D99
:100076003E2803302206031D42281C30880000302B
:100086002306031D482804302206031D4C2863302E
:10009600880000302306031D522805302206031D62
:1000A60056286730880000302306031D5C2806307A
:0E00B6002206031D60287B3088001028612878
:02400E004A2F37
:00000001FF
